{
  "contractName": "lotteryApp",
  "abi": [
    {
      "inputs": [],
      "stateMutability": "nonpayable",
      "type": "constructor"
    },
    {
      "inputs": [],
      "name": "manager",
      "outputs": [
        {
          "internalType": "address",
          "name": "",
          "type": "address"
        }
      ],
      "stateMutability": "view",
      "type": "function",
      "constant": true
    },
    {
      "inputs": [
        {
          "internalType": "uint256",
          "name": "",
          "type": "uint256"
        }
      ],
      "name": "participants",
      "outputs": [
        {
          "internalType": "address payable",
          "name": "",
          "type": "address"
        }
      ],
      "stateMutability": "view",
      "type": "function",
      "constant": true
    },
    {
      "inputs": [],
      "name": "winner",
      "outputs": [
        {
          "internalType": "address payable",
          "name": "",
          "type": "address"
        }
      ],
      "stateMutability": "view",
      "type": "function",
      "constant": true
    },
    {
      "stateMutability": "payable",
      "type": "receive",
      "payable": true
    },
    {
      "inputs": [],
      "name": "getBalance",
      "outputs": [
        {
          "internalType": "uint256",
          "name": "",
          "type": "uint256"
        }
      ],
      "stateMutability": "view",
      "type": "function",
      "constant": true
    },
    {
      "inputs": [],
      "name": "getParticipantLength",
      "outputs": [
        {
          "internalType": "uint256",
          "name": "",
          "type": "uint256"
        }
      ],
      "stateMutability": "view",
      "type": "function",
      "constant": true
    },
    {
      "inputs": [],
      "name": "allParticipants",
      "outputs": [
        {
          "internalType": "address payable[]",
          "name": "",
          "type": "address[]"
        }
      ],
      "stateMutability": "view",
      "type": "function",
      "constant": true
    },
    {
      "inputs": [],
      "name": "luckyWinner",
      "outputs": [],
      "stateMutability": "nonpayable",
      "type": "function"
    }
  ],
  "bytecode": "0x608060405234801561001057600080fd5b50336000806101000a81548173ffffffffffffffffffffffffffffffffffffffff021916908373ffffffffffffffffffffffffffffffffffffffff160217905550610cd0806100606000396000f3fe6080604052600436106100745760003560e01c80634f63c9031161004e5780634f63c903146101be57806398dec79e146101e9578063dfbf53ae14610214578063fcf488a91461023f57610126565b806312065fe01461012b57806335c1d34914610156578063481c6a751461019357610126565b3661012657655af3107a400034146100c1576040517f08c379a00000000000000000000000000000000000000000000000000000000081526004016100b890610856565b60405180910390fd5b6001339080600181540180825580915050600190039060005260206000200160009091909190916101000a81548173ffffffffffffffffffffffffffffffffffffffff021916908373ffffffffffffffffffffffffffffffffffffffff160217905550005b600080fd5b34801561013757600080fd5b50610140610256565b60405161014d919061088f565b60405180910390f35b34801561016257600080fd5b5061017d600480360381019061017891906108db565b6102ed565b60405161018a9190610949565b60405180910390f35b34801561019f57600080fd5b506101a861032c565b6040516101b59190610985565b60405180910390f35b3480156101ca57600080fd5b506101d3610350565b6040516101e09190610a5e565b60405180910390f35b3480156101f557600080fd5b506101fe6103de565b60405161020b919061088f565b60405180910390f35b34801561022057600080fd5b5061022961047a565b6040516102369190610949565b60405180910390f35b34801561024b57600080fd5b506102546104a0565b005b60008060009054906101000a900473ffffffffffffffffffffffffffffffffffffffff1673ffffffffffffffffffffffffffffffffffffffff163373ffffffffffffffffffffffffffffffffffffffff16146102e7576040517f08c379a00000000000000000000000000000000000000000000000000000000081526004016102de90610acc565b60405180910390fd5b47905090565b600181815481106102fd57600080fd5b906000526020600020016000915054906101000a900473ffffffffffffffffffffffffffffffffffffffff1681565b60008054906101000a900473ffffffffffffffffffffffffffffffffffffffff1681565b606060018054806020026020016040519081016040528092919081815260200182805480156103d457602002820191906000526020600020905b8160009054906101000a900473ffffffffffffffffffffffffffffffffffffffff1673ffffffffffffffffffffffffffffffffffffffff168152602001906001019080831161038a575b5050505050905090565b60008060009054906101000a900473ffffffffffffffffffffffffffffffffffffffff1673ffffffffffffffffffffffffffffffffffffffff163373ffffffffffffffffffffffffffffffffffffffff161461046f576040517f08c379a000000000000000000000000000000000000000000000000000000000815260040161046690610acc565b60405180910390fd5b600180549050905090565b600260009054906101000a900473ffffffffffffffffffffffffffffffffffffffff1681565b60008054906101000a900473ffffffffffffffffffffffffffffffffffffffff1673ffffffffffffffffffffffffffffffffffffffff163373ffffffffffffffffffffffffffffffffffffffff161461052e576040517f08c379a000000000000000000000000000000000000000000000000000000000815260040161052590610acc565b60405180910390fd5b60036001805490501015610577576040517f08c379a000000000000000000000000000000000000000000000000000000000815260040161056e90610b5e565b60405180910390fd5b60006105816106ed565b9050600061058d6103de565b826105989190610bad565b9050600181815481106105ae576105ad610bde565b5b9060005260206000200160009054906101000a900473ffffffffffffffffffffffffffffffffffffffff16600260006101000a81548173ffffffffffffffffffffffffffffffffffffffff021916908373ffffffffffffffffffffffffffffffffffffffff160217905550600260009054906101000a900473ffffffffffffffffffffffffffffffffffffffff1673ffffffffffffffffffffffffffffffffffffffff166108fc61065d610256565b9081150290604051600060405180830381858888f19350505050158015610688573d6000803e3d6000fd5b50600067ffffffffffffffff8111156106a4576106a3610c0d565b5b6040519080825280602002602001820160405280156106d25781602001602082028036833780820191505090505b50600190805190602001906106e892919061072c565b505050565b600080429050448160018054905060405160200161070d93929190610c5d565b6040516020818303038152906040528051906020012060001c91505090565b8280548282559060005260206000209081019282156107a5579160200282015b828111156107a45782518260006101000a81548173ffffffffffffffffffffffffffffffffffffffff021916908373ffffffffffffffffffffffffffffffffffffffff1602179055509160200191906001019061074c565b5b5090506107b291906107b6565b5090565b5b808211156107cf5760008160009055506001016107b7565b5090565b600082825260208201905092915050565b7f4e65656420746f2070617920302e3030303120657468657220746f207061727460008201527f6963697061746520696e20746865206c6f747465727900000000000000000000602082015250565b60006108406036836107d3565b915061084b826107e4565b604082019050919050565b6000602082019050818103600083015261086f81610833565b9050919050565b6000819050919050565b61088981610876565b82525050565b60006020820190506108a46000830184610880565b92915050565b600080fd5b6108b881610876565b81146108c357600080fd5b50565b6000813590506108d5816108af565b92915050565b6000602082840312156108f1576108f06108aa565b5b60006108ff848285016108c6565b91505092915050565b600073ffffffffffffffffffffffffffffffffffffffff82169050919050565b600061093382610908565b9050919050565b61094381610928565b82525050565b600060208201905061095e600083018461093a565b92915050565b600061096f82610908565b9050919050565b61097f81610964565b82525050565b600060208201905061099a6000830184610976565b92915050565b600081519050919050565b600082825260208201905092915050565b6000819050602082019050919050565b6109d581610928565b82525050565b60006109e783836109cc565b60208301905092915050565b6000602082019050919050565b6000610a0b826109a0565b610a1581856109ab565b9350610a20836109bc565b8060005b83811015610a51578151610a3888826109db565b9750610a43836109f3565b925050600181019050610a24565b5085935050505092915050565b60006020820190508181036000830152610a788184610a00565b905092915050565b7f596f7520617265206e6f7420746865206d616e61676572000000000000000000600082015250565b6000610ab66017836107d3565b9150610ac182610a80565b602082019050919050565b60006020820190508181036000830152610ae581610aa9565b9050919050565b7f4174206c65617374203320706572736f6e206e656564656420746f207374617260008201527f742061206c6f7474657279000000000000000000000000000000000000000000602082015250565b6000610b48602b836107d3565b9150610b5382610aec565b604082019050919050565b60006020820190508181036000830152610b7781610b3b565b9050919050565b7f4e487b7100000000000000000000000000000000000000000000000000000000600052601260045260246000fd5b6000610bb882610876565b9150610bc383610876565b925082610bd357610bd2610b7e565b5b828206905092915050565b7f4e487b7100000000000000000000000000000000000000000000000000000000600052603260045260246000fd5b7f4e487b7100000000000000000000000000000000000000000000000000000000600052604160045260246000fd5b6000819050919050565b610c57610c5282610876565b610c3c565b82525050565b6000610c698286610c46565b602082019150610c798285610c46565b602082019150610c898284610c46565b60208201915081905094935050505056fea264697066735822122045ccbeb9922f3672ed754af9240da119fb25b4815c2408ad12da04f25cdb499864736f6c634300080b0033",
  "immutableReferences": {},
  "source": "// SPDX-License-Identifier: MIT\npragma solidity ^0.8;\n\ncontract lotteryApp {\n    //   1. A manager address\n    address public manager;\n    //   2. Participants address\n    address payable[] public participants;\n    address payable public winner;\n\n    constructor() {\n        manager = msg.sender;\n    }\n\n    receive() external payable {\n        require(\n            msg.value == 0.0001 ether,\n            \"Need to pay 0.0001 ether to participate in the lottery\"\n        );\n        participants.push(payable(msg.sender));\n    }\n\n    function getBalance() public view returns (uint256) {\n        require(msg.sender == manager, \"You are not the manager\");\n        return address(this).balance;\n    }\n\n    function randomNumberGenerator() private view returns (uint256) {\n        uint256 timestamp = block.timestamp;\n        return\n            uint256(\n                keccak256(\n                    abi.encodePacked(\n                        block.difficulty,\n                        timestamp,\n                        participants.length\n                    )\n                )\n            );\n    }\n\n    function getParticipantLength() public view returns (uint256) {\n        require(msg.sender == manager, \"You are not the manager\");\n        return participants.length;\n    }\n\n    function allParticipants() public view returns (address payable[] memory) {\n        return participants;\n    }\n\n    function luckyWinner() public {\n        require(msg.sender == manager, \"You are not the manager\");\n        //   4. start lottery (min 3 lottery)\n        require(\n            participants.length >= 3,\n            \"At least 3 person needed to start a lottery\"\n        );\n        uint256 rand = randomNumberGenerator();\n\n        uint256 index = rand % getParticipantLength();\n        winner = participants[index];\n        //   3.  Send lottery fee to Manager\n        winner.transfer(getBalance());\n\n        // Need to revert the transaction\n        participants = new address payable[](0);\n    }\n}\n\n// Deployed using truffle\n//  0x0aCbADC223585C43dF31f81265d412f90e160Dd7\n\n// Custom Address in ganache\n//  0xbA7F90e9737d62234376Df31c5a8810d0e249e1C\n",
  "sourcePath": "/home/di-pc/Projects/LotteryDapp/Lottery-DApp/web3lab/contracts/lotteryApp.sol",
  "compiler": {
    "name": "solc",
    "version": "0.8.11+commit.d7f03943.Emscripten.clang"
  },
  "schemaVersion": "3.4.11",
  "updatedAt": "2023-01-24T08:09:20.778Z",
  "networkType": "ethereum",
  "devdoc": {
    "kind": "dev",
    "methods": {},
    "version": 1
  },
  "userdoc": {
    "kind": "user",
    "methods": {},
    "version": 1
  }
}